{
  "contractName": "AccessControlWallet",
  "abi": [
    {
      "inputs": [
        {
          "internalType": "contract IWallet",
          "name": "wallet_",
          "type": "address"
        },
        {
          "internalType": "address[]",
          "name": "_owners",
          "type": "address[]"
        }
      ],
      "stateMutability": "nonpayable",
      "type": "constructor"
    },
    {
      "anonymous": false,
      "inputs": [
        {
          "indexed": true,
          "internalType": "address",
          "name": "newAdmin",
          "type": "address"
        }
      ],
      "name": "AdminTransfer",
      "type": "event"
    },
    {
      "anonymous": false,
      "inputs": [
        {
          "indexed": true,
          "internalType": "address",
          "name": "sender",
          "type": "address"
        },
        {
          "indexed": true,
          "internalType": "uint256",
          "name": "transactionId",
          "type": "uint256"
        }
      ],
      "name": "Confirmation",
      "type": "event"
    },
    {
      "anonymous": false,
      "inputs": [
        {
          "indexed": true,
          "internalType": "address",
          "name": "sender",
          "type": "address"
        },
        {
          "indexed": false,
          "internalType": "uint256",
          "name": "value",
          "type": "uint256"
        }
      ],
      "name": "Deposit",
      "type": "event"
    },
    {
      "anonymous": false,
      "inputs": [
        {
          "indexed": true,
          "internalType": "uint256",
          "name": "transactionId",
          "type": "uint256"
        }
      ],
      "name": "Execution",
      "type": "event"
    },
    {
      "anonymous": false,
      "inputs": [
        {
          "indexed": true,
          "internalType": "uint256",
          "name": "transactionId",
          "type": "uint256"
        }
      ],
      "name": "ExecutionFailure",
      "type": "event"
    },
    {
      "anonymous": false,
      "inputs": [
        {
          "indexed": true,
          "internalType": "address",
          "name": "owner",
          "type": "address"
        }
      ],
      "name": "OwnerAddition",
      "type": "event"
    },
    {
      "anonymous": false,
      "inputs": [
        {
          "indexed": true,
          "internalType": "address",
          "name": "owner",
          "type": "address"
        }
      ],
      "name": "OwnerRemoval",
      "type": "event"
    },
    {
      "anonymous": false,
      "inputs": [
        {
          "indexed": false,
          "internalType": "uint256",
          "name": "quorum",
          "type": "uint256"
        }
      ],
      "name": "QuorumUpdate",
      "type": "event"
    },
    {
      "anonymous": false,
      "inputs": [
        {
          "indexed": true,
          "internalType": "address",
          "name": "sender",
          "type": "address"
        },
        {
          "indexed": true,
          "internalType": "uint256",
          "name": "transactionId",
          "type": "uint256"
        }
      ],
      "name": "Revocation",
      "type": "event"
    },
    {
      "anonymous": false,
      "inputs": [
        {
          "indexed": true,
          "internalType": "uint256",
          "name": "transactionId",
          "type": "uint256"
        }
      ],
      "name": "Submission",
      "type": "event"
    },
    {
      "inputs": [
        {
          "internalType": "address",
          "name": "owner",
          "type": "address"
        }
      ],
      "name": "addOwner",
      "outputs": [],
      "stateMutability": "nonpayable",
      "type": "function"
    },
    {
      "inputs": [],
      "name": "admin",
      "outputs": [
        {
          "internalType": "address",
          "name": "",
          "type": "address"
        }
      ],
      "stateMutability": "view",
      "type": "function",
      "constant": true
    },
    {
      "inputs": [
        {
          "internalType": "address",
          "name": "",
          "type": "address"
        }
      ],
      "name": "isOwner",
      "outputs": [
        {
          "internalType": "bool",
          "name": "",
          "type": "bool"
        }
      ],
      "stateMutability": "view",
      "type": "function",
      "constant": true
    },
    {
      "inputs": [
        {
          "internalType": "uint256",
          "name": "",
          "type": "uint256"
        }
      ],
      "name": "owners",
      "outputs": [
        {
          "internalType": "address",
          "name": "",
          "type": "address"
        }
      ],
      "stateMutability": "view",
      "type": "function",
      "constant": true
    },
    {
      "inputs": [
        {
          "internalType": "address",
          "name": "owner",
          "type": "address"
        }
      ],
      "name": "removeOwner",
      "outputs": [],
      "stateMutability": "nonpayable",
      "type": "function"
    },
    {
      "inputs": [
        {
          "internalType": "address",
          "name": "newAdmin",
          "type": "address"
        }
      ],
      "name": "renounceAdmin",
      "outputs": [],
      "stateMutability": "nonpayable",
      "type": "function"
    },
    {
      "inputs": [
        {
          "internalType": "address",
          "name": "_from",
          "type": "address"
        },
        {
          "internalType": "address",
          "name": "_to",
          "type": "address"
        }
      ],
      "name": "transferOwner",
      "outputs": [],
      "stateMutability": "nonpayable",
      "type": "function"
    },
    {
      "inputs": [],
      "name": "getOwners",
      "outputs": [
        {
          "internalType": "address[]",
          "name": "",
          "type": "address[]"
        }
      ],
      "stateMutability": "view",
      "type": "function",
      "constant": true
    },
    {
      "inputs": [],
      "name": "getAdmin",
      "outputs": [
        {
          "internalType": "address",
          "name": "",
          "type": "address"
        }
      ],
      "stateMutability": "view",
      "type": "function",
      "constant": true
    }
  ],
  "bytecode": "0x60806040523480156200001157600080fd5b5060405162001f5038038062001f5083398181016040528101906200003791906200040e565b80336000806101000a81548173ffffffffffffffffffffffffffffffffffffffff021916908373ffffffffffffffffffffffffffffffffffffffff160217905550600381511015620000c0576040517f08c379a0000000000000000000000000000000000000000000000000000000008152600401620000b7906200048f565b60405180910390fd5b60005b81518110156200017c576001600260008484815181106200010d577f4e487b7100000000000000000000000000000000000000000000000000000000600052603260045260246000fd5b602002602001015173ffffffffffffffffffffffffffffffffffffffff1673ffffffffffffffffffffffffffffffffffffffff16815260200190815260200160002060006101000a81548160ff021916908315150217905550808062000173906200063b565b915050620000c3565b5080600190805190602001906200019592919062000290565b506000620001b5600180549050603c6200026060201b620010fd1760201c565b9050620001cf8160646200027860201b620011131760201c565b600381905550505081600460006101000a81548173ffffffffffffffffffffffffffffffffffffffff021916908373ffffffffffffffffffffffffffffffffffffffff160217905550336000806101000a81548173ffffffffffffffffffffffffffffffffffffffff021916908373ffffffffffffffffffffffffffffffffffffffff1602179055505050620007aa565b6000818362000270919062000552565b905092915050565b600081836200028891906200051a565b905092915050565b8280548282559060005260206000209081019282156200030c579160200282015b828111156200030b5782518260006101000a81548173ffffffffffffffffffffffffffffffffffffffff021916908373ffffffffffffffffffffffffffffffffffffffff16021790555091602001919060010190620002b1565b5b5090506200031b91906200031f565b5090565b5b808211156200033a57600081600090555060010162000320565b5090565b6000620003556200034f84620004da565b620004b1565b905080838252602082019050828560208602820111156200037557600080fd5b60005b85811015620003a957816200038e8882620003b3565b84526020840193506020830192505060018101905062000378565b5050509392505050565b600081519050620003c48162000776565b92915050565b600082601f830112620003dc57600080fd5b8151620003ee8482602086016200033e565b91505092915050565b600081519050620004088162000790565b92915050565b600080604083850312156200042257600080fd5b60006200043285828601620003f7565b925050602083015167ffffffffffffffff8111156200045057600080fd5b6200045e85828601620003ca565b9150509250929050565b600062000477603e8362000509565b9150620004848262000727565b604082019050919050565b60006020820190508181036000830152620004aa8162000468565b9050919050565b6000620004bd620004d0565b9050620004cb828262000605565b919050565b6000604051905090565b600067ffffffffffffffff821115620004f857620004f7620006e7565b5b602082029050602081019050919050565b600082825260208201905092915050565b60006200052782620005fb565b91506200053483620005fb565b925082620005475762000546620006b8565b5b828204905092915050565b60006200055f82620005fb565b91506200056c83620005fb565b9250817fffffffffffffffffffffffffffffffffffffffffffffffffffffffffffffffff0483118215151615620005a857620005a762000689565b5b828202905092915050565b6000620005c082620005db565b9050919050565b6000620005d482620005b3565b9050919050565b600073ffffffffffffffffffffffffffffffffffffffff82169050919050565b6000819050919050565b620006108262000716565b810181811067ffffffffffffffff82111715620006325762000631620006e7565b5b80604052505050565b60006200064882620005fb565b91507fffffffffffffffffffffffffffffffffffffffffffffffffffffffffffffffff8214156200067e576200067d62000689565b5b600182019050919050565b7f4e487b7100000000000000000000000000000000000000000000000000000000600052601160045260246000fd5b7f4e487b7100000000000000000000000000000000000000000000000000000000600052601260045260246000fd5b7f4e487b7100000000000000000000000000000000000000000000000000000000600052604160045260246000fd5b6000601f19601f8301169050919050565b7f5468657265206e65656420746f2062652061746c65617374203320696e69746960008201527f616c207369676e61746f7269657320666f7220746869732077616c6c65740000602082015250565b6200078181620005b3565b81146200078d57600080fd5b50565b6200079b81620005c7565b8114620007a757600080fd5b50565b61179680620007ba6000396000f3fe608060405234801561001057600080fd5b50600436106100935760003560e01c80635e1fab0f116100665780635e1fab0f146101305780636e9960c31461014c5780637065cb481461016a578063a0e67e2b14610186578063f851a440146101a457610093565b8063025e7c2714610098578063173825d9146100c85780632f54bf6e146100e457806331678cf614610114575b600080fd5b6100b260048036038101906100ad9190611216565b6101c2565b6040516100bf919061137d565b60405180910390f35b6100e260048036038101906100dd91906111b1565b610201565b005b6100fe60048036038101906100f991906111b1565b6106af565b60405161010b91906113ba565b60405180910390f35b61012e600480360381019061012991906111da565b6106cf565b005b61014a600480360381019061014591906111b1565b610be9565b005b610154610cfd565b604051610161919061137d565b60405180910390f35b610184600480360381019061017f91906111b1565b610d26565b005b61018e61104b565b60405161019b9190611398565b60405180910390f35b6101ac6110d9565b6040516101b9919061137d565b60405180910390f35b600181815481106101d257600080fd5b906000526020600020016000915054906101000a900473ffffffffffffffffffffffffffffffffffffffff1681565b60008054906101000a900473ffffffffffffffffffffffffffffffffffffffff1673ffffffffffffffffffffffffffffffffffffffff163373ffffffffffffffffffffffffffffffffffffffff161461028f576040517f08c379a0000000000000000000000000000000000000000000000000000000008152600401610286906113f5565b60405180910390fd5b80600073ffffffffffffffffffffffffffffffffffffffff168173ffffffffffffffffffffffffffffffffffffffff161415610300576040517f08c379a00000000000000000000000000000000000000000000000000000000081526004016102f7906113d5565b60405180910390fd5b8160011515600260008373ffffffffffffffffffffffffffffffffffffffff1673ffffffffffffffffffffffffffffffffffffffff16815260200190815260200160002060009054906101000a900460ff16151514610394576040517f08c379a000000000000000000000000000000000000000000000000000000000815260040161038b90611435565b60405180910390fd5b6000600260008573ffffffffffffffffffffffffffffffffffffffff1673ffffffffffffffffffffffffffffffffffffffff16815260200190815260200160002060006101000a81548160ff02191690831515021790555060005b600180805490506104009190611545565b8110156105ad578373ffffffffffffffffffffffffffffffffffffffff1660018281548110610458577f4e487b7100000000000000000000000000000000000000000000000000000000600052603260045260246000fd5b9060005260206000200160009054906101000a900473ffffffffffffffffffffffffffffffffffffffff1673ffffffffffffffffffffffffffffffffffffffff16141561059a5760018080805490506104b19190611545565b815481106104e8577f4e487b7100000000000000000000000000000000000000000000000000000000600052603260045260246000fd5b9060005260206000200160009054906101000a900473ffffffffffffffffffffffffffffffffffffffff166001828154811061054d577f4e487b7100000000000000000000000000000000000000000000000000000000600052603260045260246000fd5b9060005260206000200160006101000a81548173ffffffffffffffffffffffffffffffffffffffff021916908373ffffffffffffffffffffffffffffffffffffffff1602179055506105ad565b80806105a5906115c1565b9150506103ef565b5060018054806105e6577f4e487b7100000000000000000000000000000000000000000000000000000000600052603160045260246000fd5b6001900381819060005260206000200160006101000a81549073ffffffffffffffffffffffffffffffffffffffff021916905590556106aa60018054806020026020016040519081016040528092919081815260200182805480156106a057602002820191906000526020600020905b8160009054906101000a900473ffffffffffffffffffffffffffffffffffffffff1673ffffffffffffffffffffffffffffffffffffffff1681526020019060010190808311610656575b5050505050611129565b505050565b60026020528060005260406000206000915054906101000a900460ff1681565b60008054906101000a900473ffffffffffffffffffffffffffffffffffffffff1673ffffffffffffffffffffffffffffffffffffffff163373ffffffffffffffffffffffffffffffffffffffff161461075d576040517f08c379a0000000000000000000000000000000000000000000000000000000008152600401610754906113f5565b60405180910390fd5b81600073ffffffffffffffffffffffffffffffffffffffff168173ffffffffffffffffffffffffffffffffffffffff1614156107ce576040517f08c379a00000000000000000000000000000000000000000000000000000000081526004016107c5906113d5565b60405180910390fd5b81600073ffffffffffffffffffffffffffffffffffffffff168173ffffffffffffffffffffffffffffffffffffffff16141561083f576040517f08c379a0000000000000000000000000000000000000000000000000000000008152600401610836906113d5565b60405180910390fd5b8360011515600260008373ffffffffffffffffffffffffffffffffffffffff1673ffffffffffffffffffffffffffffffffffffffff16815260200190815260200160002060009054906101000a900460ff161515146108d3576040517f08c379a00000000000000000000000000000000000000000000000000000000081526004016108ca90611435565b60405180910390fd5b8360001515600260008373ffffffffffffffffffffffffffffffffffffffff1673ffffffffffffffffffffffffffffffffffffffff16815260200190815260200160002060009054906101000a900460ff16151514610967576040517f08c379a000000000000000000000000000000000000000000000000000000000815260040161095e90611415565b60405180910390fd5b60005b600180549050811015610aaa578673ffffffffffffffffffffffffffffffffffffffff16600182815481106109c8577f4e487b7100000000000000000000000000000000000000000000000000000000600052603260045260246000fd5b9060005260206000200160009054906101000a900473ffffffffffffffffffffffffffffffffffffffff1673ffffffffffffffffffffffffffffffffffffffff161415610a97578560018281548110610a4a577f4e487b7100000000000000000000000000000000000000000000000000000000600052603260045260246000fd5b9060005260206000200160006101000a81548173ffffffffffffffffffffffffffffffffffffffff021916908373ffffffffffffffffffffffffffffffffffffffff160217905550610aaa565b8080610aa2906115c1565b91505061096a565b506000600260008873ffffffffffffffffffffffffffffffffffffffff1673ffffffffffffffffffffffffffffffffffffffff16815260200190815260200160002060006101000a81548160ff0219169083151502179055506001600260008773ffffffffffffffffffffffffffffffffffffffff1673ffffffffffffffffffffffffffffffffffffffff16815260200190815260200160002060006101000a81548160ff0219169083151502179055508573ffffffffffffffffffffffffffffffffffffffff167f8001553a916ef2f495d26a907cc54d96ed840d7bda71e73194bf5a9df7a76b9060405160405180910390a28473ffffffffffffffffffffffffffffffffffffffff167ff39e6e1eb0edcf53c221607b54b00cd28f3196fed0a24994dc308b8f611b682d60405160405180910390a2505050505050565b60008054906101000a900473ffffffffffffffffffffffffffffffffffffffff1673ffffffffffffffffffffffffffffffffffffffff163373ffffffffffffffffffffffffffffffffffffffff1614610c77576040517f08c379a0000000000000000000000000000000000000000000000000000000008152600401610c6e906113f5565b60405180910390fd5b806000806101000a81548173ffffffffffffffffffffffffffffffffffffffff021916908373ffffffffffffffffffffffffffffffffffffffff1602179055508073ffffffffffffffffffffffffffffffffffffffff167f1d751f0bc5c9e1dd4d5952599ce7bb9ef42169fb73003fc75d9e6a26d135136c60405160405180910390a250565b60008060009054906101000a900473ffffffffffffffffffffffffffffffffffffffff16905090565b60008054906101000a900473ffffffffffffffffffffffffffffffffffffffff1673ffffffffffffffffffffffffffffffffffffffff163373ffffffffffffffffffffffffffffffffffffffff1614610db4576040517f08c379a0000000000000000000000000000000000000000000000000000000008152600401610dab906113f5565b60405180910390fd5b80600073ffffffffffffffffffffffffffffffffffffffff168173ffffffffffffffffffffffffffffffffffffffff161415610e25576040517f08c379a0000000000000000000000000000000000000000000000000000000008152600401610e1c906113d5565b60405180910390fd5b8160001515600260008373ffffffffffffffffffffffffffffffffffffffff1673ffffffffffffffffffffffffffffffffffffffff16815260200190815260200160002060009054906101000a900460ff16151514610eb9576040517f08c379a0000000000000000000000000000000000000000000000000000000008152600401610eb090611415565b60405180910390fd5b6001600260008573ffffffffffffffffffffffffffffffffffffffff1673ffffffffffffffffffffffffffffffffffffffff16815260200190815260200160002060006101000a81548160ff0219169083151502179055506001839080600181540180825580915050600190039060005260206000200160009091909190916101000a81548173ffffffffffffffffffffffffffffffffffffffff021916908373ffffffffffffffffffffffffffffffffffffffff1602179055508273ffffffffffffffffffffffffffffffffffffffff167ff39e6e1eb0edcf53c221607b54b00cd28f3196fed0a24994dc308b8f611b682d60405160405180910390a2611046600180548060200260200160405190810160405280929190818152602001828054801561103c57602002820191906000526020600020905b8160009054906101000a900473ffffffffffffffffffffffffffffffffffffffff1673ffffffffffffffffffffffffffffffffffffffff1681526020019060010190808311610ff2575b5050505050611129565b505050565b606060018054806020026020016040519081016040528092919081815260200182805480156110cf57602002820191906000526020600020905b8160009054906101000a900473ffffffffffffffffffffffffffffffffffffffff1673ffffffffffffffffffffffffffffffffffffffff1681526020019060010190808311611085575b5050505050905090565b60008054906101000a900473ffffffffffffffffffffffffffffffffffffffff1681565b6000818361110b91906114eb565b905092915050565b6000818361112191906114ba565b905092915050565b60006111378251603c6110fd565b9050611144816064611113565b6003819055507f672e46ac0e6acc1662bb680b70032b6d2669924997353a59f789f7be780f8d3e60035460405161117b9190611455565b60405180910390a15050565b60008135905061119681611732565b92915050565b6000813590506111ab81611749565b92915050565b6000602082840312156111c357600080fd5b60006111d184828501611187565b91505092915050565b600080604083850312156111ed57600080fd5b60006111fb85828601611187565b925050602061120c85828601611187565b9150509250929050565b60006020828403121561122857600080fd5b60006112368482850161119c565b91505092915050565b600061124b8383611257565b60208301905092915050565b61126081611579565b82525050565b61126f81611579565b82525050565b600061128082611480565b61128a8185611498565b935061129583611470565b8060005b838110156112c65781516112ad888261123f565b97506112b88361148b565b925050600181019050611299565b5085935050505092915050565b6112dc8161158b565b82525050565b60006112ef6023836114a9565b91506112fa82611668565b604082019050919050565b60006113126019836114a9565b915061131d826116b7565b602082019050919050565b60006113356019836114a9565b9150611340826116e0565b602082019050919050565b60006113586018836114a9565b915061136382611709565b602082019050919050565b611377816115b7565b82525050565b60006020820190506113926000830184611266565b92915050565b600060208201905081810360008301526113b28184611275565b905092915050565b60006020820190506113cf60008301846112d3565b92915050565b600060208201905081810360008301526113ee816112e2565b9050919050565b6000602082019050818103600083015261140e81611305565b9050919050565b6000602082019050818103600083015261142e81611328565b9050919050565b6000602082019050818103600083015261144e8161134b565b9050919050565b600060208201905061146a600083018461136e565b92915050565b6000819050602082019050919050565b600081519050919050565b6000602082019050919050565b600082825260208201905092915050565b600082825260208201905092915050565b60006114c5826115b7565b91506114d0836115b7565b9250826114e0576114df611639565b5b828204905092915050565b60006114f6826115b7565b9150611501836115b7565b9250817fffffffffffffffffffffffffffffffffffffffffffffffffffffffffffffffff048311821515161561153a5761153961160a565b5b828202905092915050565b6000611550826115b7565b915061155b836115b7565b92508282101561156e5761156d61160a565b5b828203905092915050565b600061158482611597565b9050919050565b60008115159050919050565b600073ffffffffffffffffffffffffffffffffffffffff82169050919050565b6000819050919050565b60006115cc826115b7565b91507fffffffffffffffffffffffffffffffffffffffffffffffffffffffffffffffff8214156115ff576115fe61160a565b5b600182019050919050565b7f4e487b7100000000000000000000000000000000000000000000000000000000600052601160045260246000fd5b7f4e487b7100000000000000000000000000000000000000000000000000000000600052601260045260246000fd5b7f5370656369666965642064657374696e6174696f6e20646f65736e277420657860008201527f6973740000000000000000000000000000000000000000000000000000000000602082015250565b7f41646d696e20726573747269637465642066756e6374696f6e00000000000000600082015250565b7f54686973206f776e657220616c72656164792065786973747300000000000000600082015250565b7f54686973206f776e657220646f65736e27742065786973740000000000000000600082015250565b61173b81611579565b811461174657600080fd5b50565b611752816115b7565b811461175d57600080fd5b5056fea2646970667358221220179afb2f91a77dc87a43df925178a156353da981ffa49c176d810f0784538c4864736f6c63430008040033",
  "immutableReferences": {},
  "source": "// SPDX-License-Identifier: MIT\r\n\r\npragma solidity >=0.7.0 <0.9.0;\r\n\r\nimport \"@openzeppelin/contracts/utils/math/SafeMath.sol\";\r\nimport \"./IWallet.sol\";\r\nimport \"./AccessControl.sol\";\r\n\r\ncontract AccessControlWallet is AccessControl {\r\n    using SafeMath for uint256;\r\n\r\n    IWallet _walletInterface;\r\n\r\n    // /**\r\n    //  * @dev Contract constructor instantiates wallet interface and sets msg.sender to admin\r\n    //  */\r\n    constructor(IWallet wallet_, address[] memory _owners) AccessControl(_owners){\r\n        _walletInterface = IWallet(wallet_);\r\n        admin = msg.sender;\r\n    }\r\n\r\n    /*\r\n     * Blockchain get functions\r\n     */\r\n\r\n    function getOwners() external view returns (address[] memory) {\r\n        return owners;\r\n    }\r\n\r\n    function getAdmin() external view returns (address) {\r\n        return admin;\r\n    }\r\n}\r\n",
  "sourcePath": "C:\\Users\\Hemang\\MultiSig\\multisig_wallet\\contracts\\AccessControlWallet.sol",
  "compiler": {
    "name": "solc",
    "version": "0.8.4+commit.c7e474f2.Emscripten.clang"
  },
  "schemaVersion": "3.2.2-next.0",
  "updatedAt": "2022-07-12T07:30:13.015Z",
  "networkType": "ethereum",
  "devdoc": {
    "kind": "dev",
    "methods": {},
    "version": 1
  },
  "userdoc": {
    "events": {
      "Deposit(address,uint256)": {
        "notice": "Events"
      }
    },
    "kind": "user",
    "methods": {
      "addOwner(address)": {
        "notice": "Public Functions"
      },
      "admin()": {
        "notice": "Storage"
      }
    },
    "version": 1
  }
}