{
  "contractName": "AccessControl",
  "abi": [
    {
      "inputs": [
        {
          "internalType": "address[]",
          "name": "_owners",
          "type": "address[]"
        }
      ],
      "stateMutability": "nonpayable",
      "type": "constructor"
    },
    {
      "anonymous": false,
      "inputs": [
        {
          "indexed": true,
          "internalType": "address",
          "name": "newAdmin",
          "type": "address"
        }
      ],
      "name": "AdminTransfer",
      "type": "event"
    },
    {
      "anonymous": false,
      "inputs": [
        {
          "indexed": true,
          "internalType": "address",
          "name": "sender",
          "type": "address"
        },
        {
          "indexed": true,
          "internalType": "uint256",
          "name": "transactionId",
          "type": "uint256"
        }
      ],
      "name": "Confirmation",
      "type": "event"
    },
    {
      "anonymous": false,
      "inputs": [
        {
          "indexed": true,
          "internalType": "address",
          "name": "sender",
          "type": "address"
        },
        {
          "indexed": false,
          "internalType": "uint256",
          "name": "value",
          "type": "uint256"
        }
      ],
      "name": "Deposit",
      "type": "event"
    },
    {
      "anonymous": false,
      "inputs": [
        {
          "indexed": true,
          "internalType": "uint256",
          "name": "transactionId",
          "type": "uint256"
        }
      ],
      "name": "Execution",
      "type": "event"
    },
    {
      "anonymous": false,
      "inputs": [
        {
          "indexed": true,
          "internalType": "uint256",
          "name": "transactionId",
          "type": "uint256"
        }
      ],
      "name": "ExecutionFailure",
      "type": "event"
    },
    {
      "anonymous": false,
      "inputs": [
        {
          "indexed": true,
          "internalType": "address",
          "name": "owner",
          "type": "address"
        }
      ],
      "name": "OwnerAddition",
      "type": "event"
    },
    {
      "anonymous": false,
      "inputs": [
        {
          "indexed": true,
          "internalType": "address",
          "name": "owner",
          "type": "address"
        }
      ],
      "name": "OwnerRemoval",
      "type": "event"
    },
    {
      "anonymous": false,
      "inputs": [
        {
          "indexed": false,
          "internalType": "uint256",
          "name": "quorum",
          "type": "uint256"
        }
      ],
      "name": "QuorumUpdate",
      "type": "event"
    },
    {
      "anonymous": false,
      "inputs": [
        {
          "indexed": true,
          "internalType": "address",
          "name": "sender",
          "type": "address"
        },
        {
          "indexed": true,
          "internalType": "uint256",
          "name": "transactionId",
          "type": "uint256"
        }
      ],
      "name": "Revocation",
      "type": "event"
    },
    {
      "anonymous": false,
      "inputs": [
        {
          "indexed": true,
          "internalType": "uint256",
          "name": "transactionId",
          "type": "uint256"
        }
      ],
      "name": "Submission",
      "type": "event"
    },
    {
      "inputs": [],
      "name": "admin",
      "outputs": [
        {
          "internalType": "address",
          "name": "",
          "type": "address"
        }
      ],
      "stateMutability": "view",
      "type": "function"
    },
    {
      "inputs": [
        {
          "internalType": "address",
          "name": "",
          "type": "address"
        }
      ],
      "name": "isOwner",
      "outputs": [
        {
          "internalType": "bool",
          "name": "",
          "type": "bool"
        }
      ],
      "stateMutability": "view",
      "type": "function"
    },
    {
      "inputs": [
        {
          "internalType": "uint256",
          "name": "",
          "type": "uint256"
        }
      ],
      "name": "owners",
      "outputs": [
        {
          "internalType": "address",
          "name": "",
          "type": "address"
        }
      ],
      "stateMutability": "view",
      "type": "function"
    },
    {
      "inputs": [
        {
          "internalType": "address",
          "name": "owner",
          "type": "address"
        }
      ],
      "name": "addOwner",
      "outputs": [],
      "stateMutability": "nonpayable",
      "type": "function"
    },
    {
      "inputs": [
        {
          "internalType": "address",
          "name": "owner",
          "type": "address"
        }
      ],
      "name": "removeOwner",
      "outputs": [],
      "stateMutability": "nonpayable",
      "type": "function"
    },
    {
      "inputs": [
        {
          "internalType": "address",
          "name": "_from",
          "type": "address"
        },
        {
          "internalType": "address",
          "name": "_to",
          "type": "address"
        }
      ],
      "name": "transferOwner",
      "outputs": [],
      "stateMutability": "nonpayable",
      "type": "function"
    },
    {
      "inputs": [
        {
          "internalType": "address",
          "name": "newAdmin",
          "type": "address"
        }
      ],
      "name": "renounceAdmin",
      "outputs": [],
      "stateMutability": "nonpayable",
      "type": "function"
    }
  ],
  "bytecode": "0x60806040523480156200001157600080fd5b5060405162001c8938038062001c89833981810160405281019062000037919062000373565b336000806101000a81548173ffffffffffffffffffffffffffffffffffffffff021916908373ffffffffffffffffffffffffffffffffffffffff160217905550600381511015620000bf576040517f08c379a0000000000000000000000000000000000000000000000000000000008152600401620000b690620003df565b60405180910390fd5b60005b81518110156200017b576001600260008484815181106200010c577f4e487b7100000000000000000000000000000000000000000000000000000000600052603260045260246000fd5b602002602001015173ffffffffffffffffffffffffffffffffffffffff1673ffffffffffffffffffffffffffffffffffffffff16815260200190815260200160002060006101000a81548160ff0219169083151502179055508080620001729062000577565b915050620000c2565b508060019080519060200190620001949291906200020c565b506000620001b4600180549050603c620001dc60201b62000ff41760201c565b9050620001ce816064620001f460201b6200100a1760201c565b6003819055505050620006cc565b60008183620001ec9190620004a2565b905092915050565b600081836200020491906200046a565b905092915050565b82805482825590600052602060002090810192821562000288579160200282015b82811115620002875782518260006101000a81548173ffffffffffffffffffffffffffffffffffffffff021916908373ffffffffffffffffffffffffffffffffffffffff160217905550916020019190600101906200022d565b5b5090506200029791906200029b565b5090565b5b80821115620002b65760008160009055506001016200029c565b5090565b6000620002d1620002cb846200042a565b62000401565b90508083825260208201905082856020860282011115620002f157600080fd5b60005b858110156200032557816200030a88826200032f565b845260208401935060208301925050600181019050620002f4565b5050509392505050565b6000815190506200034081620006b2565b92915050565b600082601f8301126200035857600080fd5b81516200036a848260208601620002ba565b91505092915050565b6000602082840312156200038657600080fd5b600082015167ffffffffffffffff811115620003a157600080fd5b620003af8482850162000346565b91505092915050565b6000620003c7603e8362000459565b9150620003d48262000663565b604082019050919050565b60006020820190508181036000830152620003fa81620003b8565b9050919050565b60006200040d62000420565b90506200041b828262000541565b919050565b6000604051905090565b600067ffffffffffffffff82111562000448576200044762000623565b5b602082029050602081019050919050565b600082825260208201905092915050565b6000620004778262000537565b9150620004848362000537565b925082620004975762000496620005f4565b5b828204905092915050565b6000620004af8262000537565b9150620004bc8362000537565b9250817fffffffffffffffffffffffffffffffffffffffffffffffffffffffffffffffff0483118215151615620004f857620004f7620005c5565b5b828202905092915050565b6000620005108262000517565b9050919050565b600073ffffffffffffffffffffffffffffffffffffffff82169050919050565b6000819050919050565b6200054c8262000652565b810181811067ffffffffffffffff821117156200056e576200056d62000623565b5b80604052505050565b6000620005848262000537565b91507fffffffffffffffffffffffffffffffffffffffffffffffffffffffffffffffff821415620005ba57620005b9620005c5565b5b600182019050919050565b7f4e487b7100000000000000000000000000000000000000000000000000000000600052601160045260246000fd5b7f4e487b7100000000000000000000000000000000000000000000000000000000600052601260045260246000fd5b7f4e487b7100000000000000000000000000000000000000000000000000000000600052604160045260246000fd5b6000601f19601f8301169050919050565b7f5468657265206e65656420746f2062652061746c65617374203320696e69746960008201527f616c207369676e61746f7269657320666f7220746869732077616c6c65740000602082015250565b620006bd8162000503565b8114620006c957600080fd5b50565b6115ad80620006dc6000396000f3fe608060405234801561001057600080fd5b506004361061007d5760003560e01c806331678cf61161005b57806331678cf6146100fe5780635e1fab0f1461011a5780637065cb4814610136578063f851a440146101525761007d565b8063025e7c2714610082578063173825d9146100b25780632f54bf6e146100ce575b600080fd5b61009c6004803603810190610097919061110d565b610170565b6040516100a991906111ef565b60405180910390f35b6100cc60048036038101906100c791906110a8565b6101af565b005b6100e860048036038101906100e391906110a8565b61065d565b6040516100f5919061120a565b60405180910390f35b610118600480360381019061011391906110d1565b61067d565b005b610134600480360381019061012f91906110a8565b610b97565b005b610150600480360381019061014b91906110a8565b610cab565b005b61015a610fd0565b60405161016791906111ef565b60405180910390f35b6001818154811061018057600080fd5b906000526020600020016000915054906101000a900473ffffffffffffffffffffffffffffffffffffffff1681565b60008054906101000a900473ffffffffffffffffffffffffffffffffffffffff1673ffffffffffffffffffffffffffffffffffffffff163373ffffffffffffffffffffffffffffffffffffffff161461023d576040517f08c379a000000000000000000000000000000000000000000000000000000000815260040161023490611245565b60405180910390fd5b80600073ffffffffffffffffffffffffffffffffffffffff168173ffffffffffffffffffffffffffffffffffffffff1614156102ae576040517f08c379a00000000000000000000000000000000000000000000000000000000081526004016102a590611225565b60405180910390fd5b8160011515600260008373ffffffffffffffffffffffffffffffffffffffff1673ffffffffffffffffffffffffffffffffffffffff16815260200190815260200160002060009054906101000a900460ff16151514610342576040517f08c379a000000000000000000000000000000000000000000000000000000000815260040161033990611285565b60405180910390fd5b6000600260008573ffffffffffffffffffffffffffffffffffffffff1673ffffffffffffffffffffffffffffffffffffffff16815260200190815260200160002060006101000a81548160ff02191690831515021790555060005b600180805490506103ae919061135c565b81101561055b578373ffffffffffffffffffffffffffffffffffffffff1660018281548110610406577f4e487b7100000000000000000000000000000000000000000000000000000000600052603260045260246000fd5b9060005260206000200160009054906101000a900473ffffffffffffffffffffffffffffffffffffffff1673ffffffffffffffffffffffffffffffffffffffff16141561054857600180808054905061045f919061135c565b81548110610496577f4e487b7100000000000000000000000000000000000000000000000000000000600052603260045260246000fd5b9060005260206000200160009054906101000a900473ffffffffffffffffffffffffffffffffffffffff16600182815481106104fb577f4e487b7100000000000000000000000000000000000000000000000000000000600052603260045260246000fd5b9060005260206000200160006101000a81548173ffffffffffffffffffffffffffffffffffffffff021916908373ffffffffffffffffffffffffffffffffffffffff16021790555061055b565b8080610553906113d8565b91505061039d565b506001805480610594577f4e487b7100000000000000000000000000000000000000000000000000000000600052603160045260246000fd5b6001900381819060005260206000200160006101000a81549073ffffffffffffffffffffffffffffffffffffffff02191690559055610658600180548060200260200160405190810160405280929190818152602001828054801561064e57602002820191906000526020600020905b8160009054906101000a900473ffffffffffffffffffffffffffffffffffffffff1673ffffffffffffffffffffffffffffffffffffffff1681526020019060010190808311610604575b5050505050611020565b505050565b60026020528060005260406000206000915054906101000a900460ff1681565b60008054906101000a900473ffffffffffffffffffffffffffffffffffffffff1673ffffffffffffffffffffffffffffffffffffffff163373ffffffffffffffffffffffffffffffffffffffff161461070b576040517f08c379a000000000000000000000000000000000000000000000000000000000815260040161070290611245565b60405180910390fd5b81600073ffffffffffffffffffffffffffffffffffffffff168173ffffffffffffffffffffffffffffffffffffffff16141561077c576040517f08c379a000000000000000000000000000000000000000000000000000000000815260040161077390611225565b60405180910390fd5b81600073ffffffffffffffffffffffffffffffffffffffff168173ffffffffffffffffffffffffffffffffffffffff1614156107ed576040517f08c379a00000000000000000000000000000000000000000000000000000000081526004016107e490611225565b60405180910390fd5b8360011515600260008373ffffffffffffffffffffffffffffffffffffffff1673ffffffffffffffffffffffffffffffffffffffff16815260200190815260200160002060009054906101000a900460ff16151514610881576040517f08c379a000000000000000000000000000000000000000000000000000000000815260040161087890611285565b60405180910390fd5b8360001515600260008373ffffffffffffffffffffffffffffffffffffffff1673ffffffffffffffffffffffffffffffffffffffff16815260200190815260200160002060009054906101000a900460ff16151514610915576040517f08c379a000000000000000000000000000000000000000000000000000000000815260040161090c90611265565b60405180910390fd5b60005b600180549050811015610a58578673ffffffffffffffffffffffffffffffffffffffff1660018281548110610976577f4e487b7100000000000000000000000000000000000000000000000000000000600052603260045260246000fd5b9060005260206000200160009054906101000a900473ffffffffffffffffffffffffffffffffffffffff1673ffffffffffffffffffffffffffffffffffffffff161415610a455785600182815481106109f8577f4e487b7100000000000000000000000000000000000000000000000000000000600052603260045260246000fd5b9060005260206000200160006101000a81548173ffffffffffffffffffffffffffffffffffffffff021916908373ffffffffffffffffffffffffffffffffffffffff160217905550610a58565b8080610a50906113d8565b915050610918565b506000600260008873ffffffffffffffffffffffffffffffffffffffff1673ffffffffffffffffffffffffffffffffffffffff16815260200190815260200160002060006101000a81548160ff0219169083151502179055506001600260008773ffffffffffffffffffffffffffffffffffffffff1673ffffffffffffffffffffffffffffffffffffffff16815260200190815260200160002060006101000a81548160ff0219169083151502179055508573ffffffffffffffffffffffffffffffffffffffff167f8001553a916ef2f495d26a907cc54d96ed840d7bda71e73194bf5a9df7a76b9060405160405180910390a28473ffffffffffffffffffffffffffffffffffffffff167ff39e6e1eb0edcf53c221607b54b00cd28f3196fed0a24994dc308b8f611b682d60405160405180910390a2505050505050565b60008054906101000a900473ffffffffffffffffffffffffffffffffffffffff1673ffffffffffffffffffffffffffffffffffffffff163373ffffffffffffffffffffffffffffffffffffffff1614610c25576040517f08c379a0000000000000000000000000000000000000000000000000000000008152600401610c1c90611245565b60405180910390fd5b806000806101000a81548173ffffffffffffffffffffffffffffffffffffffff021916908373ffffffffffffffffffffffffffffffffffffffff1602179055508073ffffffffffffffffffffffffffffffffffffffff167f1d751f0bc5c9e1dd4d5952599ce7bb9ef42169fb73003fc75d9e6a26d135136c60405160405180910390a250565b60008054906101000a900473ffffffffffffffffffffffffffffffffffffffff1673ffffffffffffffffffffffffffffffffffffffff163373ffffffffffffffffffffffffffffffffffffffff1614610d39576040517f08c379a0000000000000000000000000000000000000000000000000000000008152600401610d3090611245565b60405180910390fd5b80600073ffffffffffffffffffffffffffffffffffffffff168173ffffffffffffffffffffffffffffffffffffffff161415610daa576040517f08c379a0000000000000000000000000000000000000000000000000000000008152600401610da190611225565b60405180910390fd5b8160001515600260008373ffffffffffffffffffffffffffffffffffffffff1673ffffffffffffffffffffffffffffffffffffffff16815260200190815260200160002060009054906101000a900460ff16151514610e3e576040517f08c379a0000000000000000000000000000000000000000000000000000000008152600401610e3590611265565b60405180910390fd5b6001600260008573ffffffffffffffffffffffffffffffffffffffff1673ffffffffffffffffffffffffffffffffffffffff16815260200190815260200160002060006101000a81548160ff0219169083151502179055506001839080600181540180825580915050600190039060005260206000200160009091909190916101000a81548173ffffffffffffffffffffffffffffffffffffffff021916908373ffffffffffffffffffffffffffffffffffffffff1602179055508273ffffffffffffffffffffffffffffffffffffffff167ff39e6e1eb0edcf53c221607b54b00cd28f3196fed0a24994dc308b8f611b682d60405160405180910390a2610fcb6001805480602002602001604051908101604052809291908181526020018280548015610fc157602002820191906000526020600020905b8160009054906101000a900473ffffffffffffffffffffffffffffffffffffffff1673ffffffffffffffffffffffffffffffffffffffff1681526020019060010190808311610f77575b5050505050611020565b505050565b60008054906101000a900473ffffffffffffffffffffffffffffffffffffffff1681565b600081836110029190611302565b905092915050565b6000818361101891906112d1565b905092915050565b600061102e8251603c610ff4565b905061103b81606461100a565b6003819055507f672e46ac0e6acc1662bb680b70032b6d2669924997353a59f789f7be780f8d3e60035460405161107291906112a5565b60405180910390a15050565b60008135905061108d81611549565b92915050565b6000813590506110a281611560565b92915050565b6000602082840312156110ba57600080fd5b60006110c88482850161107e565b91505092915050565b600080604083850312156110e457600080fd5b60006110f28582860161107e565b92505060206111038582860161107e565b9150509250929050565b60006020828403121561111f57600080fd5b600061112d84828501611093565b91505092915050565b61113f81611390565b82525050565b61114e816113a2565b82525050565b60006111616023836112c0565b915061116c8261147f565b604082019050919050565b60006111846019836112c0565b915061118f826114ce565b602082019050919050565b60006111a76019836112c0565b91506111b2826114f7565b602082019050919050565b60006111ca6018836112c0565b91506111d582611520565b602082019050919050565b6111e9816113ce565b82525050565b60006020820190506112046000830184611136565b92915050565b600060208201905061121f6000830184611145565b92915050565b6000602082019050818103600083015261123e81611154565b9050919050565b6000602082019050818103600083015261125e81611177565b9050919050565b6000602082019050818103600083015261127e8161119a565b9050919050565b6000602082019050818103600083015261129e816111bd565b9050919050565b60006020820190506112ba60008301846111e0565b92915050565b600082825260208201905092915050565b60006112dc826113ce565b91506112e7836113ce565b9250826112f7576112f6611450565b5b828204905092915050565b600061130d826113ce565b9150611318836113ce565b9250817fffffffffffffffffffffffffffffffffffffffffffffffffffffffffffffffff048311821515161561135157611350611421565b5b828202905092915050565b6000611367826113ce565b9150611372836113ce565b92508282101561138557611384611421565b5b828203905092915050565b600061139b826113ae565b9050919050565b60008115159050919050565b600073ffffffffffffffffffffffffffffffffffffffff82169050919050565b6000819050919050565b60006113e3826113ce565b91507fffffffffffffffffffffffffffffffffffffffffffffffffffffffffffffffff82141561141657611415611421565b5b600182019050919050565b7f4e487b7100000000000000000000000000000000000000000000000000000000600052601160045260246000fd5b7f4e487b7100000000000000000000000000000000000000000000000000000000600052601260045260246000fd5b7f5370656369666965642064657374696e6174696f6e20646f65736e277420657860008201527f6973740000000000000000000000000000000000000000000000000000000000602082015250565b7f41646d696e20726573747269637465642066756e6374696f6e00000000000000600082015250565b7f54686973206f776e657220616c72656164792065786973747300000000000000600082015250565b7f54686973206f776e657220646f65736e27742065786973740000000000000000600082015250565b61155281611390565b811461155d57600080fd5b50565b611569816113ce565b811461157457600080fd5b5056fea2646970667358221220c7b9716c7da9bdf2642c31e450a5290477275e578a3bbe3bbe413e7bcf0c322b64736f6c63430008040033",
  "immutableReferences": {},
  "source": "// SPDX-License-Identifier: MIT\r\n\r\npragma solidity >=0.7.0 <0.9.0;\r\n\r\nimport \"@openzeppelin/contracts/utils/math/SafeMath.sol\"; \r\n//mport \"@openzeppelin/contracts/token/ERC20/presets/ERC20PresetMinterPauser.sol\";\r\n\r\ncontract AccessControl {\r\n    using SafeMath for uint256;\r\n\r\n    /**\r\n     * Events\r\n     */\r\n    event Deposit(address indexed sender, uint256 value);\r\n    event Submission(uint256 indexed transactionId);\r\n    event Confirmation(address indexed sender, uint256 indexed transactionId);\r\n    event Execution(uint256 indexed transactionId);\r\n    event ExecutionFailure(uint256 indexed transactionId);\r\n    event Revocation(address indexed sender, uint256 indexed transactionId);\r\n    event OwnerAddition(address indexed owner);\r\n    event OwnerRemoval(address indexed owner);\r\n    event QuorumUpdate(uint256 quorum);\r\n    event AdminTransfer(address indexed newAdmin);\r\n\r\n    /**\r\n     * Storage\r\n     */\r\n    address public admin;\r\n\r\n    // track addresses of owners\r\n    address[] public owners;\r\n    mapping(address => bool) public isOwner;\r\n    uint256 quorum;\r\n\r\n    /**\r\n     * Modifiers\r\n     */\r\n    modifier onlyAdmin() {\r\n        require(msg.sender == admin, \"Admin restricted function\");\r\n        _;\r\n    }\r\n\r\n    modifier notNull(address _address) {\r\n        require(_address != address(0), \"Specified destination doesn't exist\");\r\n        _;\r\n    }\r\n\r\n    modifier ownerExistsMod(address owner) {\r\n        require(isOwner[owner] == true, \"This owner doesn't exist\");\r\n        _;\r\n    }\r\n\r\n    modifier notOwnerExistsMod(address owner) {\r\n        require(isOwner[owner] == false, \"This owner already exists\");\r\n        _;\r\n    }\r\n\r\n    \r\n     //@dev Contract constructor instantiates wallet interface and sets msg.sender to admin\r\n     \r\n    constructor(address[] memory _owners) {\r\n        admin = msg.sender;\r\n        require(\r\n            _owners.length >= 3,\r\n            \"There need to be atleast 3 initial signatories for this wallet\"\r\n        );\r\n        for (uint256 i = 0; i < _owners.length; i++) {\r\n            isOwner[_owners[i]] = true;\r\n        }\r\n        owners = _owners;\r\n        uint256 num = SafeMath.mul(owners.length, 60);\r\n        quorum = SafeMath.div(num, 100);\r\n    }\r\n\r\n    /**\r\n     * Public Functions\r\n     */\r\n\r\n    \r\n    // @dev Allows admin to add new owner to the wallet\r\n    // @param owner Address of the new owner\r\n     \r\n    function addOwner(address owner)\r\n        public\r\n        onlyAdmin\r\n        notNull(owner)\r\n        notOwnerExistsMod(owner)\r\n    {\r\n        // add owner\r\n        isOwner[owner] = true;\r\n        owners.push(owner);\r\n\r\n        // emit event\r\n        emit OwnerAddition(owner);\r\n\r\n        // update quorum\r\n        updateQuorum(owners);\r\n    }\r\n\r\n    \r\n     //@dev Allows admin to remove owner from the wallet\r\n     //@param owner Address of the new owner\r\n     \r\n    function removeOwner(address owner)\r\n        public\r\n        onlyAdmin\r\n        notNull(owner)\r\n        ownerExistsMod(owner)\r\n    {\r\n        // remove owner\r\n        isOwner[owner] = false;\r\n\r\n        // iterate over owners and remove the current owner\r\n        for (uint256 i = 0; i < owners.length - 1; i++)\r\n            if (owners[i] == owner) {\r\n                owners[i] = owners[owners.length - 1];\r\n                break;\r\n            }\r\n        owners.pop();\r\n\r\n        // update quorum\r\n        updateQuorum(owners);\r\n    }\r\n\r\n    // \r\n    //  @dev Allows admin to transfer owner from one wallet to  another\r\n    //  @param _from Address of the old owner\r\n    //  @param _to Address of the new owner\r\n    //  \r\n    function transferOwner(address _from, address _to)\r\n        public\r\n        onlyAdmin\r\n        notNull(_from)\r\n        notNull(_to)\r\n        ownerExistsMod(_from)\r\n        notOwnerExistsMod(_to)\r\n    {\r\n        // iterate over owners\r\n        for (uint256 i = 0; i < owners.length; i++)\r\n            // if the curernt owner\r\n            if (owners[i] == _from) {\r\n                // replace with new owner address\r\n                owners[i] = _to;\r\n                break;\r\n            }\r\n\r\n        // reset owner addresses\r\n        isOwner[_from] = false;\r\n        isOwner[_to] = true;\r\n\r\n        // emit events\r\n        emit OwnerRemoval(_from);\r\n        emit OwnerAddition(_to);\r\n    }\r\n\r\n    // /**\r\n    //  * @dev Allows admin to transfer admin rights to another address\r\n    //  * @param newAdmin Address of the new admin\r\n    //  */\r\n    function renounceAdmin(address newAdmin) public onlyAdmin {\r\n        admin = newAdmin;\r\n\r\n        emit AdminTransfer(newAdmin);\r\n    }\r\n\r\n    /**\r\n     * Internal Functions\r\n     */\r\n\r\n    // /**\r\n    //  * @dev Updates the new quorum value\r\n    //  * @param _owners List of address of the owners\r\n    //  */\r\n    function updateQuorum(address[] memory _owners) internal {\r\n        uint256 num = SafeMath.mul(_owners.length, 60);\r\n        quorum = SafeMath.div(num, 100);\r\n\r\n        emit QuorumUpdate(quorum);\r\n    }\r\n}\r\n",
  "sourcePath": "C:\\Users\\Hemang\\MultiSig\\multisig_wallet\\contracts\\AccessControl.sol",
  "compiler": {
    "name": "solc",
    "version": "0.8.4+commit.c7e474f2.Emscripten.clang"
  },
  "schemaVersion": "3.2.2-next.0",
  "updatedAt": "2022-07-12T07:26:44.062Z",
  "devdoc": {
    "kind": "dev",
    "methods": {},
    "version": 1
  },
  "userdoc": {
    "events": {
      "Deposit(address,uint256)": {
        "notice": "Events"
      }
    },
    "kind": "user",
    "methods": {
      "addOwner(address)": {
        "notice": "Public Functions"
      },
      "admin()": {
        "notice": "Storage"
      }
    },
    "version": 1
  }
}