{
  "contractName": "MultiSigWallet",
  "abi": [
    {
      "inputs": [
        {
          "internalType": "address[]",
          "name": "_owners",
          "type": "address[]"
        }
      ],
      "stateMutability": "nonpayable",
      "type": "constructor"
    },
    {
      "anonymous": false,
      "inputs": [
        {
          "indexed": true,
          "internalType": "address",
          "name": "newAdmin",
          "type": "address"
        }
      ],
      "name": "AdminTransfer",
      "type": "event"
    },
    {
      "anonymous": false,
      "inputs": [
        {
          "indexed": true,
          "internalType": "address",
          "name": "sender",
          "type": "address"
        },
        {
          "indexed": true,
          "internalType": "uint256",
          "name": "transactionId",
          "type": "uint256"
        }
      ],
      "name": "Confirmation",
      "type": "event"
    },
    {
      "anonymous": false,
      "inputs": [
        {
          "indexed": true,
          "internalType": "address",
          "name": "sender",
          "type": "address"
        },
        {
          "indexed": false,
          "internalType": "uint256",
          "name": "value",
          "type": "uint256"
        }
      ],
      "name": "Deposit",
      "type": "event"
    },
    {
      "anonymous": false,
      "inputs": [
        {
          "indexed": true,
          "internalType": "uint256",
          "name": "transactionId",
          "type": "uint256"
        }
      ],
      "name": "Execution",
      "type": "event"
    },
    {
      "anonymous": false,
      "inputs": [
        {
          "indexed": true,
          "internalType": "uint256",
          "name": "transactionId",
          "type": "uint256"
        }
      ],
      "name": "ExecutionFailure",
      "type": "event"
    },
    {
      "anonymous": false,
      "inputs": [
        {
          "indexed": true,
          "internalType": "address",
          "name": "owner",
          "type": "address"
        }
      ],
      "name": "OwnerAddition",
      "type": "event"
    },
    {
      "anonymous": false,
      "inputs": [
        {
          "indexed": true,
          "internalType": "address",
          "name": "owner",
          "type": "address"
        }
      ],
      "name": "OwnerRemoval",
      "type": "event"
    },
    {
      "anonymous": false,
      "inputs": [
        {
          "indexed": false,
          "internalType": "uint256",
          "name": "quorum",
          "type": "uint256"
        }
      ],
      "name": "QuorumUpdate",
      "type": "event"
    },
    {
      "anonymous": false,
      "inputs": [
        {
          "indexed": true,
          "internalType": "address",
          "name": "sender",
          "type": "address"
        },
        {
          "indexed": true,
          "internalType": "uint256",
          "name": "transactionId",
          "type": "uint256"
        }
      ],
      "name": "Revocation",
      "type": "event"
    },
    {
      "anonymous": false,
      "inputs": [
        {
          "indexed": true,
          "internalType": "uint256",
          "name": "transactionId",
          "type": "uint256"
        }
      ],
      "name": "Submission",
      "type": "event"
    },
    {
      "stateMutability": "payable",
      "type": "fallback",
      "payable": true
    },
    {
      "inputs": [
        {
          "internalType": "uint256",
          "name": "",
          "type": "uint256"
        }
      ],
      "name": "_validTransactions",
      "outputs": [
        {
          "internalType": "bool",
          "name": "executed",
          "type": "bool"
        },
        {
          "internalType": "address",
          "name": "destination",
          "type": "address"
        },
        {
          "internalType": "uint256",
          "name": "value",
          "type": "uint256"
        },
        {
          "internalType": "bytes",
          "name": "data",
          "type": "bytes"
        }
      ],
      "stateMutability": "view",
      "type": "function",
      "constant": true
    },
    {
      "inputs": [
        {
          "internalType": "address",
          "name": "owner",
          "type": "address"
        }
      ],
      "name": "addOwner",
      "outputs": [],
      "stateMutability": "nonpayable",
      "type": "function"
    },
    {
      "inputs": [],
      "name": "admin",
      "outputs": [
        {
          "internalType": "address",
          "name": "",
          "type": "address"
        }
      ],
      "stateMutability": "view",
      "type": "function",
      "constant": true
    },
    {
      "inputs": [
        {
          "internalType": "uint256",
          "name": "",
          "type": "uint256"
        },
        {
          "internalType": "address",
          "name": "",
          "type": "address"
        }
      ],
      "name": "confirmations",
      "outputs": [
        {
          "internalType": "bool",
          "name": "",
          "type": "bool"
        }
      ],
      "stateMutability": "view",
      "type": "function",
      "constant": true
    },
    {
      "inputs": [
        {
          "internalType": "address",
          "name": "",
          "type": "address"
        }
      ],
      "name": "isOwner",
      "outputs": [
        {
          "internalType": "bool",
          "name": "",
          "type": "bool"
        }
      ],
      "stateMutability": "view",
      "type": "function",
      "constant": true
    },
    {
      "inputs": [
        {
          "internalType": "uint256",
          "name": "",
          "type": "uint256"
        }
      ],
      "name": "owners",
      "outputs": [
        {
          "internalType": "address",
          "name": "",
          "type": "address"
        }
      ],
      "stateMutability": "view",
      "type": "function",
      "constant": true
    },
    {
      "inputs": [
        {
          "internalType": "address",
          "name": "owner",
          "type": "address"
        }
      ],
      "name": "removeOwner",
      "outputs": [],
      "stateMutability": "nonpayable",
      "type": "function"
    },
    {
      "inputs": [
        {
          "internalType": "address",
          "name": "newAdmin",
          "type": "address"
        }
      ],
      "name": "renounceAdmin",
      "outputs": [],
      "stateMutability": "nonpayable",
      "type": "function"
    },
    {
      "inputs": [],
      "name": "transactionCount",
      "outputs": [
        {
          "internalType": "uint256",
          "name": "",
          "type": "uint256"
        }
      ],
      "stateMutability": "view",
      "type": "function",
      "constant": true
    },
    {
      "inputs": [
        {
          "internalType": "uint256",
          "name": "",
          "type": "uint256"
        }
      ],
      "name": "transactions",
      "outputs": [
        {
          "internalType": "bool",
          "name": "executed",
          "type": "bool"
        },
        {
          "internalType": "address",
          "name": "destination",
          "type": "address"
        },
        {
          "internalType": "uint256",
          "name": "value",
          "type": "uint256"
        },
        {
          "internalType": "bytes",
          "name": "data",
          "type": "bytes"
        }
      ],
      "stateMutability": "view",
      "type": "function",
      "constant": true
    },
    {
      "inputs": [
        {
          "internalType": "address",
          "name": "_from",
          "type": "address"
        },
        {
          "internalType": "address",
          "name": "_to",
          "type": "address"
        }
      ],
      "name": "transferOwner",
      "outputs": [],
      "stateMutability": "nonpayable",
      "type": "function"
    },
    {
      "stateMutability": "payable",
      "type": "receive",
      "payable": true
    },
    {
      "inputs": [
        {
          "internalType": "address",
          "name": "destination",
          "type": "address"
        },
        {
          "internalType": "uint256",
          "name": "value",
          "type": "uint256"
        },
        {
          "internalType": "bytes",
          "name": "data",
          "type": "bytes"
        }
      ],
      "name": "submitTransaction",
      "outputs": [
        {
          "internalType": "uint256",
          "name": "transactionId",
          "type": "uint256"
        }
      ],
      "stateMutability": "nonpayable",
      "type": "function"
    },
    {
      "inputs": [
        {
          "internalType": "uint256",
          "name": "transactionId",
          "type": "uint256"
        }
      ],
      "name": "confirmTransaction",
      "outputs": [],
      "stateMutability": "nonpayable",
      "type": "function"
    },
    {
      "inputs": [
        {
          "internalType": "uint256",
          "name": "transactionId",
          "type": "uint256"
        }
      ],
      "name": "executeTransaction",
      "outputs": [],
      "stateMutability": "nonpayable",
      "type": "function"
    },
    {
      "inputs": [
        {
          "internalType": "uint256",
          "name": "transactionId",
          "type": "uint256"
        }
      ],
      "name": "revokeTransaction",
      "outputs": [],
      "stateMutability": "nonpayable",
      "type": "function"
    },
    {
      "inputs": [],
      "name": "getOwners",
      "outputs": [
        {
          "internalType": "address[]",
          "name": "",
          "type": "address[]"
        }
      ],
      "stateMutability": "view",
      "type": "function",
      "constant": true
    },
    {
      "inputs": [],
      "name": "getValidTransactions",
      "outputs": [
        {
          "components": [
            {
              "internalType": "bool",
              "name": "executed",
              "type": "bool"
            },
            {
              "internalType": "address",
              "name": "destination",
              "type": "address"
            },
            {
              "internalType": "uint256",
              "name": "value",
              "type": "uint256"
            },
            {
              "internalType": "bytes",
              "name": "data",
              "type": "bytes"
            }
          ],
          "internalType": "struct MultiSigWallet.Transaction[]",
          "name": "",
          "type": "tuple[]"
        }
      ],
      "stateMutability": "view",
      "type": "function",
      "constant": true
    },
    {
      "inputs": [],
      "name": "getQuorum",
      "outputs": [
        {
          "internalType": "uint256",
          "name": "",
          "type": "uint256"
        }
      ],
      "stateMutability": "view",
      "type": "function",
      "constant": true
    }
  ],
  "bytecode": "0x60806040523480156200001157600080fd5b50604051620039bf380380620039bf833981810160405281019062000037919062000375565b80336000806101000a81548173ffffffffffffffffffffffffffffffffffffffff021916908373ffffffffffffffffffffffffffffffffffffffff160217905550600381511015620000c0576040517f08c379a0000000000000000000000000000000000000000000000000000000008152600401620000b790620003e1565b60405180910390fd5b60005b81518110156200017c576001600260008484815181106200010d577f4e487b7100000000000000000000000000000000000000000000000000000000600052603260045260246000fd5b602002602001015173ffffffffffffffffffffffffffffffffffffffff1673ffffffffffffffffffffffffffffffffffffffff16815260200190815260200160002060006101000a81548160ff0219169083151502179055508080620001739062000579565b915050620000c3565b508060019080519060200190620001959291906200020e565b506000620001b5600180549050603c620001de60201b620023911760201c565b9050620001cf816064620001f660201b620023a71760201c565b600381905550505050620006ce565b60008183620001ee9190620004a4565b905092915050565b600081836200020691906200046c565b905092915050565b8280548282559060005260206000209081019282156200028a579160200282015b82811115620002895782518260006101000a81548173ffffffffffffffffffffffffffffffffffffffff021916908373ffffffffffffffffffffffffffffffffffffffff160217905550916020019190600101906200022f565b5b5090506200029991906200029d565b5090565b5b80821115620002b85760008160009055506001016200029e565b5090565b6000620002d3620002cd846200042c565b62000403565b90508083825260208201905082856020860282011115620002f357600080fd5b60005b858110156200032757816200030c888262000331565b845260208401935060208301925050600181019050620002f6565b5050509392505050565b6000815190506200034281620006b4565b92915050565b600082601f8301126200035a57600080fd5b81516200036c848260208601620002bc565b91505092915050565b6000602082840312156200038857600080fd5b600082015167ffffffffffffffff811115620003a357600080fd5b620003b18482850162000348565b91505092915050565b6000620003c9603e836200045b565b9150620003d68262000665565b604082019050919050565b60006020820190508181036000830152620003fc81620003ba565b9050919050565b60006200040f62000422565b90506200041d828262000543565b919050565b6000604051905090565b600067ffffffffffffffff8211156200044a576200044962000625565b5b602082029050602081019050919050565b600082825260208201905092915050565b6000620004798262000539565b9150620004868362000539565b925082620004995762000498620005f6565b5b828204905092915050565b6000620004b18262000539565b9150620004be8362000539565b9250817fffffffffffffffffffffffffffffffffffffffffffffffffffffffffffffffff0483118215151615620004fa57620004f9620005c7565b5b828202905092915050565b6000620005128262000519565b9050919050565b600073ffffffffffffffffffffffffffffffffffffffff82169050919050565b6000819050919050565b6200054e8262000654565b810181811067ffffffffffffffff8211171562000570576200056f62000625565b5b80604052505050565b6000620005868262000539565b91507fffffffffffffffffffffffffffffffffffffffffffffffffffffffffffffffff821415620005bc57620005bb620005c7565b5b600182019050919050565b7f4e487b7100000000000000000000000000000000000000000000000000000000600052601160045260246000fd5b7f4e487b7100000000000000000000000000000000000000000000000000000000600052601260045260246000fd5b7f4e487b7100000000000000000000000000000000000000000000000000000000600052604160045260246000fd5b6000601f19601f8301169050919050565b7f5468657265206e65656420746f2062652061746c65617374203320696e69746960008201527f616c207369676e61746f7269657320666f7220746869732077616c6c65740000602082015250565b620006bf8162000505565b8114620006cb57600080fd5b50565b6132e180620006de6000396000f3fe60806040526004361061010d5760003560e01c80639ace38c211610095578063c26c12eb11610064578063c26c12eb14610434578063c64274741461045f578063dcf506e41461049c578063ee22610b146104dc578063f851a440146105055761016c565b80639ace38c214610375578063a0e67e2b146103b5578063b77bf600146103e0578063c01a8c841461040b5761016c565b806331678cf6116100dc57806331678cf6146102945780633411c81c146102bd5780635e1fab0f146102fa5780637065cb4814610323578063735631ad1461034c5761016c565b8063025e7c27146101c6578063173825d91461020357806320ea82991461022c5780632f54bf6e146102575761016c565b3661016c57600034111561016a573373ffffffffffffffffffffffffffffffffffffffff167fe1fffcc4923d04b559f4d29a8bfc6cda04eb5b0d3c460751c2402c5c5cc9109c346040516101619190612c6d565b60405180910390a25b005b60003411156101c4573373ffffffffffffffffffffffffffffffffffffffff167fe1fffcc4923d04b559f4d29a8bfc6cda04eb5b0d3c460751c2402c5c5cc9109c346040516101bb9190612c6d565b60405180910390a25b005b3480156101d257600080fd5b506101ed60048036038101906101e891906126a9565b610530565b6040516101fa9190612ac7565b60405180910390f35b34801561020f57600080fd5b5061022a600480360381019061022591906125dd565b61056f565b005b34801561023857600080fd5b50610241610a1d565b60405161024e9190612b04565b60405180910390f35b34801561026357600080fd5b5061027e600480360381019061027991906125dd565b610b89565b60405161028b9190612b26565b60405180910390f35b3480156102a057600080fd5b506102bb60048036038101906102b69190612606565b610ba9565b005b3480156102c957600080fd5b506102e460048036038101906102df91906126d2565b6110c3565b6040516102f19190612b26565b60405180910390f35b34801561030657600080fd5b50610321600480360381019061031c91906125dd565b6110f2565b005b34801561032f57600080fd5b5061034a600480360381019061034591906125dd565b611206565b005b34801561035857600080fd5b50610373600480360381019061036e91906126a9565b61152b565b005b34801561038157600080fd5b5061039c600480360381019061039791906126a9565b61182c565b6040516103ac9493929190612b41565b60405180910390f35b3480156103c157600080fd5b506103ca611911565b6040516103d79190612ae2565b60405180910390f35b3480156103ec57600080fd5b506103f561199f565b6040516104029190612c6d565b60405180910390f35b34801561041757600080fd5b50610432600480360381019061042d91906126a9565b6119a5565b005b34801561044057600080fd5b50610449611c43565b6040516104569190612c6d565b60405180910390f35b34801561046b57600080fd5b5061048660048036038101906104819190612642565b611c4d565b6040516104939190612c6d565b60405180910390f35b3480156104a857600080fd5b506104c360048036038101906104be91906126a9565b611e1e565b6040516104d39493929190612b41565b60405180910390f35b3480156104e857600080fd5b5061050360048036038101906104fe91906126a9565b611f13565b005b34801561051157600080fd5b5061051a61236d565b6040516105279190612ac7565b60405180910390f35b6001818154811061054057600080fd5b906000526020600020016000915054906101000a900473ffffffffffffffffffffffffffffffffffffffff1681565b60008054906101000a900473ffffffffffffffffffffffffffffffffffffffff1673ffffffffffffffffffffffffffffffffffffffff163373ffffffffffffffffffffffffffffffffffffffff16146105fd576040517f08c379a00000000000000000000000000000000000000000000000000000000081526004016105f490612bcd565b60405180910390fd5b80600073ffffffffffffffffffffffffffffffffffffffff168173ffffffffffffffffffffffffffffffffffffffff16141561066e576040517f08c379a000000000000000000000000000000000000000000000000000000000815260040161066590612bad565b60405180910390fd5b8160011515600260008373ffffffffffffffffffffffffffffffffffffffff1673ffffffffffffffffffffffffffffffffffffffff16815260200190815260200160002060009054906101000a900460ff16151514610702576040517f08c379a00000000000000000000000000000000000000000000000000000000081526004016106f990612c2d565b60405180910390fd5b6000600260008573ffffffffffffffffffffffffffffffffffffffff1673ffffffffffffffffffffffffffffffffffffffff16815260200190815260200160002060006101000a81548160ff02191690831515021790555060005b6001808054905061076e9190612e8f565b81101561091b578373ffffffffffffffffffffffffffffffffffffffff16600182815481106107c6577f4e487b7100000000000000000000000000000000000000000000000000000000600052603260045260246000fd5b9060005260206000200160009054906101000a900473ffffffffffffffffffffffffffffffffffffffff1673ffffffffffffffffffffffffffffffffffffffff16141561090857600180808054905061081f9190612e8f565b81548110610856577f4e487b7100000000000000000000000000000000000000000000000000000000600052603260045260246000fd5b9060005260206000200160009054906101000a900473ffffffffffffffffffffffffffffffffffffffff16600182815481106108bb577f4e487b7100000000000000000000000000000000000000000000000000000000600052603260045260246000fd5b9060005260206000200160006101000a81548173ffffffffffffffffffffffffffffffffffffffff021916908373ffffffffffffffffffffffffffffffffffffffff16021790555061091b565b808061091390612fb0565b91505061075d565b506001805480610954577f4e487b7100000000000000000000000000000000000000000000000000000000600052603160045260246000fd5b6001900381819060005260206000200160006101000a81549073ffffffffffffffffffffffffffffffffffffffff02191690559055610a186001805480602002602001604051908101604052809291908181526020018280548015610a0e57602002820191906000526020600020905b8160009054906101000a900473ffffffffffffffffffffffffffffffffffffffff1673ffffffffffffffffffffffffffffffffffffffff16815260200190600101908083116109c4575b50505050506123bd565b505050565b60606006805480602002602001604051908101604052809291908181526020016000905b82821015610b8057838290600052602060002090600302016040518060800160405290816000820160009054906101000a900460ff161515151581526020016000820160019054906101000a900473ffffffffffffffffffffffffffffffffffffffff1673ffffffffffffffffffffffffffffffffffffffff1673ffffffffffffffffffffffffffffffffffffffff16815260200160018201548152602001600282018054610aef90612f4d565b80601f0160208091040260200160405190810160405280929190818152602001828054610b1b90612f4d565b8015610b685780601f10610b3d57610100808354040283529160200191610b68565b820191906000526020600020905b815481529060010190602001808311610b4b57829003601f168201915b50505050508152505081526020019060010190610a41565b50505050905090565b60026020528060005260406000206000915054906101000a900460ff1681565b60008054906101000a900473ffffffffffffffffffffffffffffffffffffffff1673ffffffffffffffffffffffffffffffffffffffff163373ffffffffffffffffffffffffffffffffffffffff1614610c37576040517f08c379a0000000000000000000000000000000000000000000000000000000008152600401610c2e90612bcd565b60405180910390fd5b81600073ffffffffffffffffffffffffffffffffffffffff168173ffffffffffffffffffffffffffffffffffffffff161415610ca8576040517f08c379a0000000000000000000000000000000000000000000000000000000008152600401610c9f90612bad565b60405180910390fd5b81600073ffffffffffffffffffffffffffffffffffffffff168173ffffffffffffffffffffffffffffffffffffffff161415610d19576040517f08c379a0000000000000000000000000000000000000000000000000000000008152600401610d1090612bad565b60405180910390fd5b8360011515600260008373ffffffffffffffffffffffffffffffffffffffff1673ffffffffffffffffffffffffffffffffffffffff16815260200190815260200160002060009054906101000a900460ff16151514610dad576040517f08c379a0000000000000000000000000000000000000000000000000000000008152600401610da490612c2d565b60405180910390fd5b8360001515600260008373ffffffffffffffffffffffffffffffffffffffff1673ffffffffffffffffffffffffffffffffffffffff16815260200190815260200160002060009054906101000a900460ff16151514610e41576040517f08c379a0000000000000000000000000000000000000000000000000000000008152600401610e3890612c0d565b60405180910390fd5b60005b600180549050811015610f84578673ffffffffffffffffffffffffffffffffffffffff1660018281548110610ea2577f4e487b7100000000000000000000000000000000000000000000000000000000600052603260045260246000fd5b9060005260206000200160009054906101000a900473ffffffffffffffffffffffffffffffffffffffff1673ffffffffffffffffffffffffffffffffffffffff161415610f71578560018281548110610f24577f4e487b7100000000000000000000000000000000000000000000000000000000600052603260045260246000fd5b9060005260206000200160006101000a81548173ffffffffffffffffffffffffffffffffffffffff021916908373ffffffffffffffffffffffffffffffffffffffff160217905550610f84565b8080610f7c90612fb0565b915050610e44565b506000600260008873ffffffffffffffffffffffffffffffffffffffff1673ffffffffffffffffffffffffffffffffffffffff16815260200190815260200160002060006101000a81548160ff0219169083151502179055506001600260008773ffffffffffffffffffffffffffffffffffffffff1673ffffffffffffffffffffffffffffffffffffffff16815260200190815260200160002060006101000a81548160ff0219169083151502179055508573ffffffffffffffffffffffffffffffffffffffff167f8001553a916ef2f495d26a907cc54d96ed840d7bda71e73194bf5a9df7a76b9060405160405180910390a28473ffffffffffffffffffffffffffffffffffffffff167ff39e6e1eb0edcf53c221607b54b00cd28f3196fed0a24994dc308b8f611b682d60405160405180910390a2505050505050565b60076020528160005260406000206020528060005260406000206000915091509054906101000a900460ff1681565b60008054906101000a900473ffffffffffffffffffffffffffffffffffffffff1673ffffffffffffffffffffffffffffffffffffffff163373ffffffffffffffffffffffffffffffffffffffff1614611180576040517f08c379a000000000000000000000000000000000000000000000000000000000815260040161117790612bcd565b60405180910390fd5b806000806101000a81548173ffffffffffffffffffffffffffffffffffffffff021916908373ffffffffffffffffffffffffffffffffffffffff1602179055508073ffffffffffffffffffffffffffffffffffffffff167f1d751f0bc5c9e1dd4d5952599ce7bb9ef42169fb73003fc75d9e6a26d135136c60405160405180910390a250565b60008054906101000a900473ffffffffffffffffffffffffffffffffffffffff1673ffffffffffffffffffffffffffffffffffffffff163373ffffffffffffffffffffffffffffffffffffffff1614611294576040517f08c379a000000000000000000000000000000000000000000000000000000000815260040161128b90612bcd565b60405180910390fd5b80600073ffffffffffffffffffffffffffffffffffffffff168173ffffffffffffffffffffffffffffffffffffffff161415611305576040517f08c379a00000000000000000000000000000000000000000000000000000000081526004016112fc90612bad565b60405180910390fd5b8160001515600260008373ffffffffffffffffffffffffffffffffffffffff1673ffffffffffffffffffffffffffffffffffffffff16815260200190815260200160002060009054906101000a900460ff16151514611399576040517f08c379a000000000000000000000000000000000000000000000000000000000815260040161139090612c0d565b60405180910390fd5b6001600260008573ffffffffffffffffffffffffffffffffffffffff1673ffffffffffffffffffffffffffffffffffffffff16815260200190815260200160002060006101000a81548160ff0219169083151502179055506001839080600181540180825580915050600190039060005260206000200160009091909190916101000a81548173ffffffffffffffffffffffffffffffffffffffff021916908373ffffffffffffffffffffffffffffffffffffffff1602179055508273ffffffffffffffffffffffffffffffffffffffff167ff39e6e1eb0edcf53c221607b54b00cd28f3196fed0a24994dc308b8f611b682d60405160405180910390a2611526600180548060200260200160405190810160405280929190818152602001828054801561151c57602002820191906000526020600020905b8160009054906101000a900473ffffffffffffffffffffffffffffffffffffffff1673ffffffffffffffffffffffffffffffffffffffff16815260200190600101908083116114d2575b50505050506123bd565b505050565b3360011515600260008373ffffffffffffffffffffffffffffffffffffffff1673ffffffffffffffffffffffffffffffffffffffff16815260200190815260200160002060009054906101000a900460ff161515146115bf576040517f08c379a00000000000000000000000000000000000000000000000000000000081526004016115b690612c4d565b60405180910390fd5b8133600015156007600084815260200190815260200160002060008373ffffffffffffffffffffffffffffffffffffffff1673ffffffffffffffffffffffffffffffffffffffff16815260200190815260200160002060009054906101000a900460ff16151514611665576040517f08c379a000000000000000000000000000000000000000000000000000000000815260040161165c90612bed565b60405180910390fd5b83600015156005600083815260200190815260200160002060000160009054906101000a900460ff161515146116d0576040517f08c379a00000000000000000000000000000000000000000000000000000000081526004016116c790612b8d565b60405180910390fd5b6005600086815260200190815260200160002060000160019054906101000a900473ffffffffffffffffffffffffffffffffffffffff16600073ffffffffffffffffffffffffffffffffffffffff168173ffffffffffffffffffffffffffffffffffffffff161415611777576040517f08c379a000000000000000000000000000000000000000000000000000000000815260040161176e90612bad565b60405180910390fd5b60006007600088815260200190815260200160002060003373ffffffffffffffffffffffffffffffffffffffff1673ffffffffffffffffffffffffffffffffffffffff16815260200190815260200160002060006101000a81548160ff021916908315150217905550853373ffffffffffffffffffffffffffffffffffffffff167ff6a317157440607f36269043eb55f1287a5a19ba2216afeab88cd46cbcfb88e960405160405180910390a3505050505050565b60056020528060005260406000206000915090508060000160009054906101000a900460ff16908060000160019054906101000a900473ffffffffffffffffffffffffffffffffffffffff169080600101549080600201805461188e90612f4d565b80601f01602080910402602001604051908101604052809291908181526020018280546118ba90612f4d565b80156119075780601f106118dc57610100808354040283529160200191611907565b820191906000526020600020905b8154815290600101906020018083116118ea57829003601f168201915b5050505050905084565b6060600180548060200260200160405190810160405280929190818152602001828054801561199557602002820191906000526020600020905b8160009054906101000a900473ffffffffffffffffffffffffffffffffffffffff1673ffffffffffffffffffffffffffffffffffffffff168152602001906001019080831161194b575b5050505050905090565b60045481565b3360011515600260008373ffffffffffffffffffffffffffffffffffffffff1673ffffffffffffffffffffffffffffffffffffffff16815260200190815260200160002060009054906101000a900460ff16151514611a39576040517f08c379a0000000000000000000000000000000000000000000000000000000008152600401611a3090612c4d565b60405180910390fd5b8133600015156007600084815260200190815260200160002060008373ffffffffffffffffffffffffffffffffffffffff1673ffffffffffffffffffffffffffffffffffffffff16815260200190815260200160002060009054906101000a900460ff16151514611adf576040517f08c379a0000000000000000000000000000000000000000000000000000000008152600401611ad690612bed565b60405180910390fd5b6005600085815260200190815260200160002060000160019054906101000a900473ffffffffffffffffffffffffffffffffffffffff16600073ffffffffffffffffffffffffffffffffffffffff168173ffffffffffffffffffffffffffffffffffffffff161415611b86576040517f08c379a0000000000000000000000000000000000000000000000000000000008152600401611b7d90612bad565b60405180910390fd5b60016007600087815260200190815260200160002060003373ffffffffffffffffffffffffffffffffffffffff1673ffffffffffffffffffffffffffffffffffffffff16815260200190815260200160002060006101000a81548160ff021916908315150217905550843373ffffffffffffffffffffffffffffffffffffffff167f4a504a94899432a9846e1aa406dceb1bcfd538bb839071d49d1e5e23f5be30ef60405160405180910390a3611c3c85611f13565b5050505050565b6000600354905090565b60003360011515600260008373ffffffffffffffffffffffffffffffffffffffff1673ffffffffffffffffffffffffffffffffffffffff16815260200190815260200160002060009054906101000a900460ff16151514611ce3576040517f08c379a0000000000000000000000000000000000000000000000000000000008152600401611cda90612c4d565b60405180910390fd5b600454915060405180608001604052806000151581526020018673ffffffffffffffffffffffffffffffffffffffff168152602001858152602001848152506005600084815260200190815260200160002060008201518160000160006101000a81548160ff02191690831515021790555060208201518160000160016101000a81548173ffffffffffffffffffffffffffffffffffffffff021916908373ffffffffffffffffffffffffffffffffffffffff160217905550604082015181600101556060820151816002019080519060200190611dc292919061241b565b50905050600160046000828254611dd99190612dae565b92505081905550817fc0ba8fe4b176c1714197d43b9cc6bcf797a4a7461c5fe8d0ef6e184ae7601e5160405160405180910390a2611e16826119a5565b509392505050565b60068181548110611e2e57600080fd5b90600052602060002090600302016000915090508060000160009054906101000a900460ff16908060000160019054906101000a900473ffffffffffffffffffffffffffffffffffffffff1690806001015490806002018054611e9090612f4d565b80601f0160208091040260200160405190810160405280929190818152602001828054611ebc90612f4d565b8015611f095780601f10611ede57610100808354040283529160200191611f09565b820191906000526020600020905b815481529060010190602001808311611eec57829003601f168201915b5050505050905084565b3360011515600260008373ffffffffffffffffffffffffffffffffffffffff1673ffffffffffffffffffffffffffffffffffffffff16815260200190815260200160002060009054906101000a900460ff16151514611fa7576040517f08c379a0000000000000000000000000000000000000000000000000000000008152600401611f9e90612c4d565b60405180910390fd5b81600015156005600083815260200190815260200160002060000160009054906101000a900460ff16151514612012576040517f08c379a000000000000000000000000000000000000000000000000000000000815260040161200990612b8d565b60405180910390fd5b60008080600090505b6001805490508110156121205760076000878152602001908152602001600020600060018381548110612077577f4e487b7100000000000000000000000000000000000000000000000000000000600052603260045260246000fd5b9060005260206000200160009054906101000a900473ffffffffffffffffffffffffffffffffffffffff1673ffffffffffffffffffffffffffffffffffffffff1673ffffffffffffffffffffffffffffffffffffffff16815260200190815260200160002060009054906101000a900460ff16156120ff576001836120fc9190612dae565b92505b600354831061210d57600191505b808061211890612fb0565b91505061201b565b50801561236657600060056000878152602001908152602001600020905060018160000160006101000a81548160ff02191690831515021790555060008160000160019054906101000a900473ffffffffffffffffffffffffffffffffffffffff1673ffffffffffffffffffffffffffffffffffffffff168260010154836002016040516121ae9190612ab0565b60006040518083038185875af1925050503d80600081146121eb576040519150601f19603f3d011682016040523d82523d6000602084013e6121f0565b606091505b5050905080156123185760068290806001815401808255809150506001900390600052602060002090600302016000909190919091506000820160009054906101000a900460ff168160000160006101000a81548160ff0219169083151502179055506000820160019054906101000a900473ffffffffffffffffffffffffffffffffffffffff168160000160016101000a81548173ffffffffffffffffffffffffffffffffffffffff021916908373ffffffffffffffffffffffffffffffffffffffff1602179055506001820154816001015560028201816002019080546122d890612f4d565b6122e39291906124a1565b505050867f33e13ecb54c3076d8e8bb8c2881800a4d972b792045ffae98fdf46df365fed7560405160405180910390a2612363565b867f526441bb6c1aba3c9a4a6ca1d6545da9c2333c8c48343ef398eb858d72b7923660405160405180910390a260008260000160006101000a81548160ff0219169083151502179055505b50505b5050505050565b60008054906101000a900473ffffffffffffffffffffffffffffffffffffffff1681565b6000818361239f9190612e35565b905092915050565b600081836123b59190612e04565b905092915050565b60006123cb8251603c612391565b90506123d88160646123a7565b6003819055507f672e46ac0e6acc1662bb680b70032b6d2669924997353a59f789f7be780f8d3e60035460405161240f9190612c6d565b60405180910390a15050565b82805461242790612f4d565b90600052602060002090601f0160209004810192826124495760008555612490565b82601f1061246257805160ff1916838001178555612490565b82800160010185558215612490579182015b8281111561248f578251825591602001919060010190612474565b5b50905061249d919061252e565b5090565b8280546124ad90612f4d565b90600052602060002090601f0160209004810192826124cf576000855561251d565b82601f106124e0578054855561251d565b8280016001018555821561251d57600052602060002091601f016020900482015b8281111561251c578254825591600101919060010190612501565b5b50905061252a919061252e565b5090565b5b8082111561254757600081600090555060010161252f565b5090565b600061255e61255984612cad565b612c88565b90508281526020810184848401111561257657600080fd5b612581848285612f0b565b509392505050565b6000813590506125988161327d565b92915050565b600082601f8301126125af57600080fd5b81356125bf84826020860161254b565b91505092915050565b6000813590506125d781613294565b92915050565b6000602082840312156125ef57600080fd5b60006125fd84828501612589565b91505092915050565b6000806040838503121561261957600080fd5b600061262785828601612589565b925050602061263885828601612589565b9150509250929050565b60008060006060848603121561265757600080fd5b600061266586828701612589565b9350506020612676868287016125c8565b925050604084013567ffffffffffffffff81111561269357600080fd5b61269f8682870161259e565b9150509250925092565b6000602082840312156126bb57600080fd5b60006126c9848285016125c8565b91505092915050565b600080604083850312156126e557600080fd5b60006126f3858286016125c8565b925050602061270485828601612589565b9150509250929050565b600061271a838361273a565b60208301905092915050565b60006127328383612a2f565b905092915050565b61274381612ec3565b82525050565b61275281612ec3565b82525050565b600061276382612d13565b61276d8185612d4e565b935061277883612cde565b8060005b838110156127a9578151612790888261270e565b975061279b83612d34565b92505060018101905061277c565b5085935050505092915050565b60006127c182612d1e565b6127cb8185612d5f565b9350836020820285016127dd85612cee565b8060005b8581101561281957848403895281516127fa8582612726565b945061280583612d41565b925060208a019950506001810190506127e1565b50829750879550505050505092915050565b61283481612ed5565b82525050565b61284381612ed5565b82525050565b600061285482612d29565b61285e8185612d70565b935061286e818560208601612f1a565b612877816130b5565b840191505092915050565b600061288d82612d29565b6128978185612d81565b93506128a7818560208601612f1a565b6128b0816130b5565b840191505092915050565b600081546128c881612f4d565b6128d28186612d92565b945060018216600081146128ed57600181146128fe57612931565b60ff19831686528186019350612931565b61290785612cfe565b60005b838110156129295781548189015260018201915060208101905061290a565b838801955050505b50505092915050565b6000612947602b83612d9d565b9150612952826130c6565b604082019050919050565b600061296a602383612d9d565b915061297582613115565b604082019050919050565b600061298d601983612d9d565b915061299882613164565b602082019050919050565b60006129b0602c83612d9d565b91506129bb8261318d565b604082019050919050565b60006129d3601983612d9d565b91506129de826131dc565b602082019050919050565b60006129f6601883612d9d565b9150612a0182613205565b602082019050919050565b6000612a19602783612d9d565b9150612a248261322e565b604082019050919050565b6000608083016000830151612a47600086018261282b565b506020830151612a5a602086018261273a565b506040830151612a6d6040860182612a92565b5060608301518482036060860152612a858282612849565b9150508091505092915050565b612a9b81612f01565b82525050565b612aaa81612f01565b82525050565b6000612abc82846128bb565b915081905092915050565b6000602082019050612adc6000830184612749565b92915050565b60006020820190508181036000830152612afc8184612758565b905092915050565b60006020820190508181036000830152612b1e81846127b6565b905092915050565b6000602082019050612b3b600083018461283a565b92915050565b6000608082019050612b56600083018761283a565b612b636020830186612749565b612b706040830185612aa1565b8181036060830152612b828184612882565b905095945050505050565b60006020820190508181036000830152612ba68161293a565b9050919050565b60006020820190508181036000830152612bc68161295d565b9050919050565b60006020820190508181036000830152612be681612980565b9050919050565b60006020820190508181036000830152612c06816129a3565b9050919050565b60006020820190508181036000830152612c26816129c6565b9050919050565b60006020820190508181036000830152612c46816129e9565b9050919050565b60006020820190508181036000830152612c6681612a0c565b9050919050565b6000602082019050612c826000830184612aa1565b92915050565b6000612c92612ca3565b9050612c9e8282612f7f565b919050565b6000604051905090565b600067ffffffffffffffff821115612cc857612cc7613086565b5b612cd1826130b5565b9050602081019050919050565b6000819050602082019050919050565b6000819050602082019050919050565b60008190508160005260206000209050919050565b600081519050919050565b600081519050919050565b600081519050919050565b6000602082019050919050565b6000602082019050919050565b600082825260208201905092915050565b600082825260208201905092915050565b600082825260208201905092915050565b600082825260208201905092915050565b600081905092915050565b600082825260208201905092915050565b6000612db982612f01565b9150612dc483612f01565b9250827fffffffffffffffffffffffffffffffffffffffffffffffffffffffffffffffff03821115612df957612df8612ff9565b5b828201905092915050565b6000612e0f82612f01565b9150612e1a83612f01565b925082612e2a57612e29613028565b5b828204905092915050565b6000612e4082612f01565b9150612e4b83612f01565b9250817fffffffffffffffffffffffffffffffffffffffffffffffffffffffffffffffff0483118215151615612e8457612e83612ff9565b5b828202905092915050565b6000612e9a82612f01565b9150612ea583612f01565b925082821015612eb857612eb7612ff9565b5b828203905092915050565b6000612ece82612ee1565b9050919050565b60008115159050919050565b600073ffffffffffffffffffffffffffffffffffffffff82169050919050565b6000819050919050565b82818337600083830152505050565b60005b83811015612f38578082015181840152602081019050612f1d565b83811115612f47576000848401525b50505050565b60006002820490506001821680612f6557607f821691505b60208210811415612f7957612f78613057565b5b50919050565b612f88826130b5565b810181811067ffffffffffffffff82111715612fa757612fa6613086565b5b80604052505050565b6000612fbb82612f01565b91507fffffffffffffffffffffffffffffffffffffffffffffffffffffffffffffffff821415612fee57612fed612ff9565b5b600182019050919050565b7f4e487b7100000000000000000000000000000000000000000000000000000000600052601160045260246000fd5b7f4e487b7100000000000000000000000000000000000000000000000000000000600052601260045260246000fd5b7f4e487b7100000000000000000000000000000000000000000000000000000000600052602260045260246000fd5b7f4e487b7100000000000000000000000000000000000000000000000000000000600052604160045260246000fd5b6000601f19601f8301169050919050565b7f54686973207472616e73616374696f6e2068617320616c72656164792062656560008201527f6e2065786563757465642e000000000000000000000000000000000000000000602082015250565b7f5370656369666965642064657374696e6174696f6e20646f65736e277420657860008201527f6973740000000000000000000000000000000000000000000000000000000000602082015250565b7f41646d696e20726573747269637465642066756e6374696f6e00000000000000600082015250565b7f596f75206861766520616c726561647920636f6e6669726d656420746869732060008201527f7472616e73616374696f6e2e0000000000000000000000000000000000000000602082015250565b7f54686973206f776e657220616c72656164792065786973747300000000000000600082015250565b7f54686973206f776e657220646f65736e27742065786973740000000000000000600082015250565b7f596f7520617265206e6f7420617574686f72697a656420666f7220746869732060008201527f616374696f6e2e00000000000000000000000000000000000000000000000000602082015250565b61328681612ec3565b811461329157600080fd5b50565b61329d81612f01565b81146132a857600080fd5b5056fea2646970667358221220578af72f49d6a74d6fae0ebea94d66db268f8b51a5c77b750d647f82b979ba4b64736f6c63430008040033",
  "immutableReferences": {},
  "source": "// SPDX-License-Identifier: MIT\r\n\r\npragma solidity >=0.7.0 <0.9.0;\r\n\r\nimport \"@openzeppelin/contracts/utils/math/SafeMath.sol\";\r\nimport \"./IWallet.sol\";\r\nimport \"./AccessControl.sol\";\r\n\r\ncontract MultiSigWallet is AccessControl {\r\n    using SafeMath for uint256;\r\n    /*\r\n     * Storage\r\n     */\r\n    struct Transaction {\r\n        bool executed;\r\n        address destination;\r\n        uint256 value;\r\n        bytes data;\r\n    }\r\n\r\n    // track transaction ID and keep a mapping of the same\r\n    uint256 public transactionCount;\r\n    mapping(uint256 => Transaction) public transactions;\r\n    Transaction[] public _validTransactions;\r\n\r\n    // track transactions ID to which owner addresses have confirmed\r\n    mapping(uint256 => mapping(address => bool)) public confirmations;\r\n\r\n    /*\r\n     * Fallback function allows to deposit ether.\r\n     */\r\n    fallback() external payable {\r\n        if (msg.value > 0) {\r\n            emit Deposit(msg.sender, msg.value);\r\n        }\r\n    }\r\n\r\n    receive() external payable {\r\n        if (msg.value > 0) {\r\n            emit Deposit(msg.sender, msg.value);\r\n        }\r\n    }\r\n\r\n    /*\r\n     * Modifiers\r\n     */\r\n    modifier isOwnerMod(address owner) {\r\n        require(\r\n            isOwner[owner] == true,\r\n            \"You are not authorized for this action.\"\r\n        );\r\n        _;\r\n    }\r\n\r\n    modifier isConfirmedMod(uint256 transactionId, address owner) {\r\n        require(\r\n            confirmations[transactionId][owner] == false,\r\n            \"You have already confirmed this transaction.\"\r\n        );\r\n        _;\r\n    }\r\n\r\n    modifier isExecutedMod(uint256 transactionId) {\r\n        require(\r\n            transactions[transactionId].executed == false,\r\n            \"This transaction has already been executed.\"\r\n        );\r\n        _;\r\n    }\r\n\r\n    // /**\r\n    //  * @dev Contract constructor sets initial owners\r\n    //  * @param _owners List of initial owners.\r\n    //  */\r\n    constructor(address[] memory _owners) AccessControl(_owners) {}\r\n\r\n    /*\r\n     * Public Functions\r\n     */\r\n\r\n    // /**\r\n    //  * @dev Allows an owner to submit and confirm a transaction.\r\n    //  * @param destination Transaction target address.\r\n    //  * @param value Transaction ether value.\r\n    //  * @param data Transaction data payload.\r\n    //  * @return transactionId Transaction ID.\r\n    //  */\r\n    function submitTransaction(\r\n        address destination,\r\n        uint256 value,\r\n        bytes memory data\r\n    ) public isOwnerMod(msg.sender) returns (uint256 transactionId) {\r\n        // assign ID to count\r\n        transactionId = transactionCount;\r\n\r\n        // update transactions mapping with the transaction struct\r\n        transactions[transactionId] = Transaction({\r\n            destination: destination,\r\n            value: value,\r\n            data: data,\r\n            executed: false\r\n        });\r\n\r\n        // update new count\r\n        transactionCount += 1;\r\n\r\n        // emit event\r\n        emit Submission(transactionId);\r\n\r\n        // transactionId = addTransaction(destination, value, data);\r\n        confirmTransaction(transactionId);\r\n    }\r\n\r\n    // /**\r\n    //  * @dev Allows an owner to confirm a transaction.\r\n    //  * @param transactionId Transaction ID.\r\n    //  */\r\n    function confirmTransaction(uint256 transactionId)\r\n        public\r\n        isOwnerMod(msg.sender)\r\n        isConfirmedMod(transactionId, msg.sender)\r\n        notNull(transactions[transactionId].destination)\r\n    {\r\n        // update confirmation\r\n        confirmations[transactionId][msg.sender] = true;\r\n        emit Confirmation(msg.sender, transactionId);\r\n\r\n        // on confirmation, execute transaction\r\n        executeTransaction(transactionId);\r\n    }\r\n\r\n    // /**\r\n    //  * @dev Allows anyone to execute a confirmed transaction.\r\n    //  * @param transactionId Transaction ID.\r\n    //  */\r\n    function executeTransaction(uint256 transactionId)\r\n        public\r\n        isOwnerMod(msg.sender)\r\n        isExecutedMod(transactionId)\r\n    {\r\n        uint256 count = 0;\r\n        bool quorumReached;\r\n\r\n        // iterate over the array of owners\r\n        for (uint256 i = 0; i < owners.length; i++) {\r\n            // if owner has confirmed the transaction\r\n            if (confirmations[transactionId][owners[i]]) count += 1;\r\n            // if count reached the quorum specification then return true\r\n            if (count >= quorum) quorumReached = true;\r\n        }\r\n\r\n        if (quorumReached) {\r\n            // extrapolate struct to a variable\r\n            Transaction storage txn = transactions[transactionId];\r\n            // update variable executed state\r\n            txn.executed = true;\r\n\r\n            // transfer the value to the destination address, and get boolean of success/fail\r\n            (bool success, ) = txn.destination.call{value: txn.value}(txn.data);\r\n\r\n            if (success) {\r\n                _validTransactions.push(txn);\r\n                emit Execution(transactionId);\r\n            } else {\r\n                emit ExecutionFailure(transactionId);\r\n                txn.executed = false;\r\n            }\r\n        }\r\n    }\r\n\r\n    // /**\r\n    //  * @dev Allows an owner to revoke a confirmation for a transaction.\r\n    //  * @param transactionId Transaction ID.\r\n    //  */\r\n    function revokeTransaction(uint256 transactionId)\r\n        external\r\n        isOwnerMod(msg.sender)\r\n        isConfirmedMod(transactionId, msg.sender)\r\n        isExecutedMod(transactionId)\r\n        notNull(transactions[transactionId].destination)\r\n    {\r\n        confirmations[transactionId][msg.sender] = false;\r\n        emit Revocation(msg.sender, transactionId);\r\n    }\r\n\r\n    /**\r\n     * Blockchain get functions\r\n     */\r\n    function getOwners() external view returns (address[] memory) {\r\n        return owners;\r\n    }\r\n\r\n    function getValidTransactions()\r\n        external\r\n        view\r\n        returns (Transaction[] memory)\r\n    {\r\n        return _validTransactions;\r\n    }\r\n\r\n    function getQuorum() external view returns (uint256) {\r\n        return quorum;\r\n    }\r\n}\r\n",
  "sourcePath": "C:\\Users\\Hemang\\MultiSig\\multisig_wallet\\contracts\\MultiSigWallet.sol",
  "compiler": {
    "name": "solc",
    "version": "0.8.4+commit.c7e474f2.Emscripten.clang"
  },
  "schemaVersion": "3.2.2-next.0",
  "updatedAt": "2022-07-12T07:30:13.009Z",
  "networkType": "ethereum",
  "devdoc": {
    "kind": "dev",
    "methods": {},
    "version": 1
  },
  "userdoc": {
    "events": {
      "Deposit(address,uint256)": {
        "notice": "Events"
      }
    },
    "kind": "user",
    "methods": {
      "addOwner(address)": {
        "notice": "Public Functions"
      },
      "admin()": {
        "notice": "Storage"
      },
      "getOwners()": {
        "notice": "Blockchain get functions"
      }
    },
    "version": 1
  }
}